:03000000020CD21D
:100CD20075C7AA75C75575FD5A75C7AA75C75575E3
:100CE200FDA5787FE4F6D8FD9000007FFF7E03E447
:0C0CF200F0A3DFFCDEFA758127020D394B
:0B14A6004200100000012300012100A3
:0416F2008F828E83D2
:0316F600E493FF7B
:0116F90022CE
:040774008E0A8F0B4F
:10077800E4FCE50B7807CEC313CE13D8F97807C38A
:1007880033CE33CED8F9FBAA06E4FCECC3948074CC
:10079800809480501DEC2BFFE43AFE1216F2750C83
:1007A800008F0D741D2CF582E43400F583EFF00CF6
:1007B80080D97E00E50B547F241DF582EE3400F5C8
:1007C80083EDF0EBF5A6EAF5A775AEFFA2AF9201AF
:1007D800C2AF75C7AA75C755439F01A20192AFA2C0
:1007E800AF9201C2AF75C7AA75C75543A501A2014B
:1007F80092AF75AF22A2AF9201C2AF75C7AA75C7F3
:100808005543A401A20192AFA2AF9201C2AF75C72E
:10081800AA75C755439F01A20192AFA2AF9201C228
:10082800AF75C7AA75C75543A501A20192AF75AFA9
:1008380021E4FCECC3948074809480502AEB2CF55E
:10084800A6EAF5A7741D2CF582E43400F583E0F5DB
:10085800AEA2AF9201C2AF75C7AA75C75543A4012E
:10086800A20192AF0C80CCA2AF9201C2AF75C7AA09
:1008780075C75553A5FEA20192AFA2AF9201C2AFB0
:0D08880075C7AA75C755539FFEA20192AF18
:010895002240
:10130F00E4FDFCE42DFFEC3447F50C8F0D8F82F5D7
:10131F0083E493F50B750A00FF7A00ED547F241DCB
:10132F00F582EA3400F583EFF00DBD00010CED649A
:10133F000B4C70CF78127C007D017B017A00791DF8
:07134F007E007F0B0203BBCF
:10098E00E4FD750A47F50B7B01781D7C000D7A009E
:10099E007912FE7F0B1203BBA2AF9201C2AF75C7D5
:1009AE00AA75C755439F01A20192AF75AEFF75AFF1
:1009BE0022A2AF9201C2AF75C7AA75C75543A50152
:1009CE00A20192AFE50BF5A6E50AF5A7A2AF92013B
:1009DE00C2AF75C7AA75C75543A401A20192AFA2B3
:1009EE00AF9201C2AF75C7AA75C755439F01A20149
:1009FE0092AFA2AF9201C2AF75C7AA75C75543A5F4
:100A0E0001A20192AF75AF21E4FDEDC39480748015
:100A1E009480502CE50B2DF5A6E50AF5A7741D2D37
:100A2E00F582E43400F583E0F5AEA2AF9201C2AFD9
:100A3E0075C7AA75C75543A401A20192AF0D80CA0E
:100A4E00A2AF9201C2AF75C7AA75C75553A5FEA234
:100A5E000192AFA2AF9201C2AF75C7AA75C7555327
:060A6E009FFEA20192AF01
:010A7400225F
:020F5D00AB05E2
:100F5F00E4FCFD78081205A48F1B8E1A8D198C18CE
:100F6F00751F00751E80751D98751C00E51B4BF5D0
:100F7F001BE51AF51AE519F519E518F518E4FBEB59
:100F8F00C39410748094805053E47F01FEFDFCC322
:100F9F0074179BF9F81205A4EF551BFFEE551AFEB7
:100FAF00ED5519FDEC55184D4E4F6018E51B651F9B
:100FBF00F51BE51A651EF51AE519651DF519E518F6
:100FCF00651CF518AF1FAE1EAD1DAC1C78011205C8
:0E0FDF00918F1F8E1E8D1D8C1C0B80A3AF1BCF
:010FED0022E1
:10169500AFBDEF7011D200D2C4C2C330C308C2C6F9
:0716A500D2C6C2C3C2C62277
:021102008F124A
:10110400E4F513F514F5157516037517E6120003C7
:101114007D017F80121564E4FDAF12121564120084
:10112400037D017F811215647F647E007D007C0055
:1011340012127AE4FF1214278F13E4FF1214278F7C
:1011440014E4FF1214278F1512160DE513F516E596
:1011540014F517AD15AF17AE16120F5DEF60057ECF
:0B116400037FE722AE16E51754FCFFE6
:01116F00225D
:1015CB007FE5121102AD07AC06E4120231E4FBFA1F
:1015DB0079FA783A120126E4FBFA79C078C0020056
:0115EB0035CA
:101541007FE3121102AD07AC06E41202317B527A3D
:10155100B8792F783B1201267B667A66793B78C28F
:0315610002003550
:03002B0002146953
:10146900C0E0C0F0C083C082C0D075D000C000C049
:1014790001C002C003C004C005C006C007C2CF1224
:1014890016E9D007D006D005D004D003D002D00188
:0D149900D000D0D0D082D083D0F0D0E0328F
:030023000213566F
:10135600C0E0C0F0C083C082C0D075D000C000C05D
:1013660001C002C003C004C005C006C0073098070C
:10137600AF9912151AC298309902C299D007D006B1
:10138600D005D004D003D002D001D000D0D0D08276
:07139600D083D0F0D0E0325B
:1015870043C92053C9AF53C8FE43C98043C908752F
:10159700CAF075CBD8E4F5CCF5CD439B80D2AFD25A
:0215A700CA2256
:100E2600121541C004C005C006C007900019E0FEB7
:100E3600A3E0FF7C007D0A12040EAC06AD07EC129F
:100E46000231D003D002D001D0001200358F0D8EB2
:100E56000C8D0B8C0A1215CBC004C005C006C0074A
:100E660090001BE0FEA3E0FF7C007D0A12040EAC9E
:100E760006AD07EC120231D003D002D001D0001229
:100E860000358F118E108D0F8C0EE4FFFE7D207CB9
:100E960041AB0DAA0CA90BA80A12012612026A90F0
:100EA60000ECEEF0A3EFF0E4FFFE7D207C41AB11F9
:100EB600AA10A90FA80E12012612026A9000F0EEDF
:040EC600F0A3EFF0B6
:010ECA002205
:100FEE00900100E0FEA3E0FF900019E0B5063EA3DD
:100FFE00E0B50739900104E0FEA3E0FF90001BE08E
:10100E00B5062AA3E0B50725900016E0FF9000F87C
:10101E00E0B40019A3E0B507149000FCE0FEA3E0D5
:10102E00FF900017E06E7003A3E06F60419000F830
:10103E00A3E0900016F09000FCE0FFA3E0900017F4
:10104E00CFF0A3EFF0900100E0FFA3E0900019CFE6
:10105E00F0A3EFF0900104E0FFA3E090001BCFF0AF
:0F106E00A3EFF012098E900016E0FF1216DE229B
:10089600E4F5B1F5B2F5B3F5B4F5ACF5AD53B3DFA8
:1008A60043B4201216D27D347F027E3812077412AA
:1008B600130F7F157E237D987C34900012E0F8A3F9
:1008C600E0F9A3E0FAA3E0FBC312058060249000E0
:1008D600121205B7349823159000167401F0A3740C
:1008E60025F0A37480F0E4A3F0A3F0A3F0A3F01224
:1008F600098E900016E0FF1216DE7F807E257D00B1
:100906007C001211701215879000EAE4F0A304F03F
:10091600E4A3F0A3F0A3F0A37402F0E4A3F0A3F021
:10092600A3F0A37403F0E4A3F0A3F004A3F0A3F0F0
:10093600900016E0FF9000F8E4F0A3EFF0A3740136
:10094600F0A304F0900017E0FFA3E09000FCCFF0C6
:10095600A3EFF0A37401F0A37403F0900019E0FF75
:10096600A3E0900100CFF0A3EFF0A37401F0A3740D
:1009760004F090001BE0FFA3E0900104CFF0A3EF8A
:08098600F0C2951213E380FB9F
:1014B1004100CF0142009D00004200E7FFFF4100D3
:1014C100CE004200D000004200E5FFFF4100CD0008
:0814D1004100E90002240000C3
:10107D00E0FF9000D0E475F001120444FC74D22519
:10108D00F0F58274003CF583EFF07B017A0079E78F
:06109D008B0A8A0B890C8E
:1010A30012045AFDE5F0FEEF6DFFEE8FF01204859A
:1010B30090011CE4F0A37408F0AB0AAA0BA90C126C
:1010C300045AFF30E011E5F0C313FEEF13FFEE64A3
:1010D300A0FEEF6401800B12045AFFE5F0C313FE78
:1010E300EF13FFEE8FF012048590011DE024FFF053
:0E10F30090011CE034FFF0E07002A3E070BB3F
:0111010022CB
:10162B007B017A0079D29000D0E0FCA3E0FD12128E
:0B163B00C5E49000D0F0A3F07F012276
:1016AC009000CEE060037F0022E490009DF0A3F058
:0716BC009000CE04F0FF22B4
:04122C008E0A8F0B8C
:10123000E4FBFAAE02EB7802C333CE33CED8F92406
:10124000EAF58274003EF583E0FEA3E0B50B1FEEE5
:10125000B50A1BAE02EB7802C333CE33CED8F924E5
:10126000ECF58274003EF583ECF0A3EDF0220BBBAD
:0912700000010AEB64074A70BAA0
:011279002252
:0411DB00AD07AC06AA
:1011DF00E4FBFAAE02EB7802C333CE33CED8F92458
:1011EF00EAF58274003EF583E0FEA3E0B5051FEE3D
:1011FF00B5041BAE02EB7802C333CE33CED8F9243D
:10120F00ECF58274003EF583E0FEA3E0FF220BBBFA
:0C121F0000010AEB64074A70BAE4FEFF0D
:01122B0022A0
:0414E200AD07AC06A0
:1014E600E4FBFAAE02EB7802C333CE33CED8F9244E
:1014F600EAF58274003EF583E0FEA3E0B50507EE4B
:10150600B504037F01220BBB00010AEB64074A7096
:03151600D27F0081
:0115190022AF
:0F139D002400FFEC3EF0FCA3EFF0FDAF03AE0227
:0813AC008E0C8F0D8C0E8D0FCD
:1013B400E4F510F511C3E511950FE510950E501CD9
:1013C400E50D2511FFE50C3510FE1214E2EF700255
:0E13D400FF220511E51170DD051080D97F01A3
:0113E20022E8
:1015EC00AE07EE44809000B7F09000CFE09000B6CC
:1015FC00F09000CBE4F0A304F09000B8EEF00216EB
:01160C00AC31
:100A7500E490011AF0A3F0A3F0A3F0A3F0A3F09083
:100A850000A1E0FEA3E07C002400FFEC3E90011AEB
:100A9500F0FAA3EFF0FB9000A3E0FEA3E090011CA9
:100AA50012139DEF70057F020215EC9000B77403D9
:100AB500F09000CFE09000B6F09000CBE4F0A304F6
:100AC500F0E49000B8F090011EF0A3F090011CE056
:100AD500FEA3E0FFA3E0FCA3E0FDC39FEC9E505AFC
:100AE50090011BE02DFF90011AE03CFE1211DB8EF8
:100AF5000A8F0BEEFF9000CBE0FCA3E0FD24B8F5D8
:100B05008274003CF583EFF074B92DF58274003CD6
:100B1500F583E50BF09000CCE02402F09000CBE0EB
:0A0B25003400F0A3E0149000B8F0D3
:100B2F0090011FE004F0709A90011EE004F0809293
:030B3F001216ACDF
:010B42002290
:100B4300E490011AF0A3F0A3F0A3F0A3F0A3F090B4
:100B530000A1E0FEA3E07C002400FFEC3E90011A1C
:100B6300F0FAA3EFF0FB9000A3E0FEA3E090011CDA
:100B730012139DEF70057F020215EC9000B7740409
:100B8300F09000CFE09000B6F09000CBE4F0A30427
:100B9300F0E49000B8F090011EF0A3F090011CE087
:100BA300FEA3E0FFA3E0FCA3E0FDC39FEC9E505A2D
:100BB30090011BE02DFF90011AE03CFE1211DB8E29
:100BC3000A8F0BEEFF9000CBE0FCA3E0FD24B8F509
:100BD3008274003CF583EFF074B92DF58274003C08
:100BE300F583E50BF09000CCE02402F09000CBE01D
:0A0BF3003400F0A3E0149000B8F005
:100BFD0090011FE004F0709A90011EE004F08092C5
:030C0D001216AC10
:010C100022C1
:100D7E00E490011AF0A3F0A3F0A3F0A3F09000A169
:100D8E00E0FEA3E07C002400FFEC3E90011AF0A3ED
:100D9E00EFF09000A3E0FEA3E02400FFEC3E9001F4
:100DAE001CF0A3EFF09000B77406F09000CFE09027
:100DBE0000B6F09000CBE4F0A37404F090011AE0BA
:100DCE00FEA3E0FF1214E2EF70077F021215EC8013
:100DDE004490011AE0FEA3E0FFA3E0FCA3E0FD12A5
:100DEE00122CE490011EF090011EE0C39404748056
:100DFE0094805021E0FF24A1F582E43400F583E0D5
:100E0E00FE74B82FF582E43400F583EEF090011EE7
:080E1E00E004F080D20216ACE2
:0E16C3009000E9E0FF90011AF0E49000E9F0D9
:0116D10022F6
:10166100C3E5259419E5249400400CE4F524F525FF
:0A167100900119F07F01227F002292
:100ECB00E490011CF0A3F0900119E0D3940474801A
:100EDB00948040649000CFE0FF900106E06F70506B
:100EEB00A3E064016019E064026014E06403600F26
:100EFB00E06404600AE064056005E06406700B9032
:100F0B00011CE4F0A37408F08031900107E0640F3A
:100F1B006005E06410701290010CE02409FEE433CC
:100F2B0090011CF0A3CEF08012E4900119F0FF2287
:100F3B00E4900119F07F01227F0222900119E0FF5A
:100F4B0090011CE0B40008A3E0B507037F03227FE8
:010F5B000293
:010F5C002272
:10063D00E490011BF0120ECB90011BEFF0640360F0
:10064D00030206D4900106E090009FF074FF900025
:10065D00E5F0A3F090009FE0FF7B017A0079E512B1
:10066D00109D900107E09000A0F0E0FF7B017A0063
:10067D0079E512109DE49000B4F0A3F090011A7486
:10068D0002F0900119E0FF90011AE0FEC39F502C7B
:10069D0074062EF582E43401F583E0FF9000B4E496
:1006AD0075F001120444FC74A125F0F58274003C30
:1006BD00F583EFF090011AE004F080C69000CD7440
:1006CD0002F0E4900119F01216619000CDE0640281
:1006DD006003020773C39000B5E094029000B4E08C
:1006ED0094005003020773A3E024FEF09000B4E0E1
:1006FD0034FFF0E490011AF090011AE0FFFDD39061
:10070D0000B5E09D9000B4E09400401D74A12FF55C
:10071D0082E43400F583E0FF7B017A0079E5121065
:10072D009D90011AE004F080CF9000B4E0FCA3E0AE
:10073D00FD24A2F58274003CF583E0FE74A12DF535
:10074D008274003CF583E07C002400FFEC3EFE90BB
:10075D0000E5E0B5060BA3E0B507069000E97401CE
:06076D00F0E49000CDF065
:010773002263
:100C110074FF9000E7F0A3F0E49000D0F0A3F0900F
:100C210000B612107D9000B712107DE490009DF087
:100C3100A3F09000CBE0FEA3E0FFC390009EE09FF5
:100C410090009DE09E5047E0FEA3E0FF24B8F582AE
:100C510074003EF583E0FD9000D0E475F0011204CC
:100C610044FA74D225F0F58274003AF583EDF074FC
:100C7100B82FF58274003EF583E0FF1210979000C3
:100C81009EE004F070AC90009DE004F080A4900020
:100C9100E7E0FEA3E0FD9000D0E475F0011204440A
:100CA100FA74D225F0F58274003AF583EDF0EEFF87
:100CB1009000D0E475F001120444FC74D225F0F5E3
:100CC1008274003CF583EFF012162BE49000CEF015
:010CD1002200
:1013E3009000CEE06003120C1112063D1216C3EFFB
:1013F30060319000CFE0FF90009FE0B50725A3E0A8
:1014030024FC600E24FE60102403701212002602D6
:101413000A75120026020B43120D7E0216FA7F0193
:041423001215EC2290
:0B16DE009000CFEFF01200210200226C
:0814D900410119000226000088
:0100210022BC
:0100220022BB
:10164600C2998F99A2AF9201C2AF75C7AA75C75545
:0B16560043AA40A20192AF3099FD2290
:0A12C5008B0A8A0B890C8C0D8D0E2C
:1012CF00D295E4FDFCC3ED950EEC950D5018AB0ACD
:1012DF00AA0BA90C8D828C831203E1FF1216460D07
:1012EF00BD00010C80DF0527E52770020526643C51
:0F12FF0045267007F526F52712167BC2957F014D
:01130E0022BC
:10151A00900119E02406F582E43401F583EFF09096
:10152A000119E004F0E0D39413748094804002E43B
:07153A00F0E4F524F5252281
:0916E9000525E525700205242207
:03002600020E26A1
:0316FA00020FEEEE
:101170008F0D8E0C8D0B8C0A53B1BF53B2BF53B180
:101180007F53B27F75985043878053C4F843C4207F
:10119000AB0DAA0CA90BA80A7F407E427D0F7C00F4
:1011A0001204E0C374FF9FFF74FF9EFEE49DFDE404
:1011B0009CFC78081205918FC6AB0DAA0CA90BA850
:1011C0000A7F407E427D0F7C001204E0C374FF9FC3
:0B11D000FF8FC543C408D2ACD2AF2291
:10167B0075C7AA75C755A2AF9201C2AF75C7AA7538
:0A168B00C755439F80A20192AF22D1
:10127A008F1B8E1A8D198C18538EF7438901D28CC5
:10128A00E4FFFEFDFCAB1BAA1AA919A818C3120594
:10129A00806025758ACA758CFA308DFDC28DE51B72
:1012AA0024FFF51BE51A34FFF51AE51934FFF51981
:0B12BA00E51834FFF51880C8C28C2234
:1015A900EF4E600F43B10443B20443B34043B44028
:1015B900D2C02243B30843B40843B31043B410C2A2
:0215C900C0223E
:0C16D200E4FFFE1215A975BE27D2C62247
:100003007F107E27D2C5C2C320C312D3EF9400EE64
:0D001300648094804007EF1F70EE1E80EBAC
:0100200022BD
:10160D007F107E27C2C3D2C430C412D3EF9400EE34
:0D161D00648094804007EF1F70EE1E80EB8C
:01162A00229D
:101427007D107C27E4FED2C2C2C320C310D3ED9443
:1014370000EC94004007ED1D70F01C80EDAEBCEF92
:101447006401701B7C277D10C2C2C2C320C310D3A6
:10145700ED9400EC94004007ED1D70F01C80EDAF9B
:01146700067E
:011468002261
:101564007B107A278FBCED6002C2C5C2C320C312B0
:10157400D3EB9400EA648094804007EB1B70EE1A6E
:0215840080EBFA
:011586002242
:10002E000202D6E86480F8E933E83360110460F028
:10003E00ED33EC337009E8FCE9FDEAFEEBFF220438
:10004E0060DED3EB9FEA9EE99DE8C2E78CF0C2F733
:10005E0095F0400CE8CCF8E9CDF9EACEFAEBCFFBFF
:10006E001202A185D0F05804700320D5B3E80470B5
:10007E00075002B2D50202E092D5EC0460F7E4CC50
:10008E00C0E0C398F8603B94186008400DD0E0FBC8
:10009E000202B8E4FBFAC9FC8028E830E406E4C9A1
:1000AE00FBE4CAFCE830E305E4C9CACBFCE854071C
:1000BE006010F8C3E913F9EA13FAEB13FBEC13FC27
:1000CE00D8F130F52FC3E49CFCEF9BFFEE9AFEEDCA
:1000DE0099FDD0E0FBEF4E4D4C701222DB03020275
:1000EE00DDEC2CFCEF33FFEE33FEED33FDED30E7B0
:1000FE00EB0202B8EF2BFFEE3AFEED39FDD0E0FB3E
:10010E0050130BBB00030202E0ED13FDEE13FEEFE6
:08011E0013FFEC13FC0202B810
:10012600EC4D6011E8497017ED33EC3304600DE4D3
:10013600FCFFFEFD22E933E8330470F80202D61212
:1001460002A158046009E4CC248150062850090213
:1001560002E02840030202DDC0E0EB4A7044B980A9
:1001660006D0E0FB0202CCEF4E701CBD8008EBFF10
:10017600EAFEE9FD80EBE98DF0A4FEE5F002020F50
:10018600E9CDF9EAFEEBFFEF89F0A4FCE5F0CE89B4
:10019600F0A42EFFE435F0CD89F0A42DFEE435F071
:1001A6008067EF4E7005BD80D780C3EF8BF0A4AC9F
:1001B600F0EE8BF0A42CFCE435F0F8EF8AF0A42CDA
:1001C600E5F038FCE433CB8DF0A42CFCE5F03BF8ED
:1001D600EE8AF0A42CFCE5F038F8E433CF89F0A4DD
:1001E6002CFCE5F038CF3400CE89F0A42FFFE5F0E3
:1001F6003EFEE433C98DF0A42EFEE5F039CD8AF03B
:10020600A42FFFE5F03EFEE43DFD33D0E0FB5007B2
:100216000BBB000F0202E0EC2CFCEF33FFEE33FECB
:06022600ED33FD0202B8F9
:10022C0075F020800E75F010800575F0087D007E4D
:10023C00007F003392D530D503120572EC33401099
:10024C00EF33FFEE33FEED33FDEC33FCD5F0ED2256
:0E025C00E5F0247EA2D513CC92E7CDCEFF2292
:10026A00EDD2E7CD33EC3392D524814006E4FFFE8C
:10027A00FDFC22FCE4CFCECDCC24E0501174FF80EB
:10028A00EDC3CC13CCCD13CDCE13CECF13CF047088
:07029A00F030D5DE02057211
:1002A100E9D2E7C933E833F892D5EDD2E7CD33ECA3
:0702B10033FC5002B2D5221C
:1002B800EC30E7100FBF000C0EBE00080DBD0004A7
:1002C8000BEB6014A2D5EB13FCED92E7FD2274FF53
:1002D800FCFDFEFF22E480F8A2D574FF13FC7D80AC
:0302E800E480EFC0
:100CFE00020896E493A3F8E493A34003F68001F26E
:100D0E0008DFF48029E493A3F85407240CC8C333F6
:100D1E00C4540F4420C8834004F456800146F6DFC5
:100D2E00E4800B01020408102040809014A6E47E9B
:100D3E00019360BCA3FF543F30E509541FFEE493BA
:100D4E00A360010ECF54C025E060A840B8E493A381
:100D5E00FAE493A3F8E493A3C8C582C8CAC583CAAC
:100D6E00F0A3C8C582C8CAC583CADFE9DEE780BE64
:0114E100000A
:1002EB00E709F608DFFA8046E709F208DFFA803EF5
:1002FB0088828C83E709F0A3DFFA8032E309F608E2
:10030B00DFFA8078E309F208DFFA807088828C8349
:10031B00E309F0A3DFFA806489828A83E0A3F608FD
:10032B00DFFA805889828A83E0A3F208DFFA804CD7
:10033B0080D280FA80C680D4806980F280338010AE
:10034B0080A680EA809A80A880DA80E280CA803317
:10035B0089828A83ECFAE493A3C8C582C8CCC5838F
:10036B00CCF0A3C8C582C8CCC583CCDFE9DEE7805F
:10037B000D89828A83E493A3F608DFF9ECFAA9F0DE
:10038B00EDFB2289828A83ECFAE0A3C8C582C8CC34
:10039B00C583CCF0A3C8C582C8CCC583CCDFEADE4D
:1003AB00E880DB89828A83E493A3F208DFF980CCAF
:1003BB0088F0EF60010E4E60C388F0ED2402B404A8
:1003CB000050B9F582EB2402B4040050AF2323454F
:0603DB00822390033B7336
:1003E100BB010CE58229F582E5833AF583E02250D1
:1003F10006E92582F8E622BBFE06E92582F8E2221B
:0D040100E58229F582E5833AF583E4932234
:10040E00C2D5EC30E709B2D5E4C39DFDE49CFCEE09
:10041E0030E715B2D5E4C39FFFE49EFE1205E8C394
:10042E00E49DFDE49CFC80031205E830D507C3E48F
:06043E009FFFE49EFE2278
:10044400A3F8E0C5F025F0F0E5821582700215836B
:06045400E0C838F0E822C8
:10045A00BB010A89828A83E0F5F0A3E0225006876D
:10046A00F009E71922BBFE07E3F5F009E31922892F
:0B047A00828A83E493F5F07401932262
:10048500BB010A89828A83F0E5F0A3F0225006F7C2
:0F04950009A7F01922BBFE06F3E5F009F31922BF
:1004A40075F008758200EF2FFFEE33FECD33CDCC0F
:1004B40033CCC58233C5829BED9AEC99E582984092
:1004C4000CF582EE9BFEED9AFDEC99FC0FD5F0D66F
:1004D400E4CEFBE4CDFAE4CCF9A88222B800C1B999
:1004E4000059BA002DEC8BF084CFCECDFCE5F0CBD7
:1004F400F97818EF2FFFEE33FEED33FDEC33FCEB10
:1005040033FB10D703994004EB99FB0FD8E5E4F9CA
:10051400FA227818EF2FFFEE33FEED33FDEC33FCB7
:10052400C933C910D7059BE99A4007EC9BFCE99AAB
:10053400F90FD8E0E4C9FAE4CCFB2275F010EF2FF0
:10054400FFEE33FEED33FDCC33CCC833C810D707F0
:100554009BEC9AE899400AED9BFDEC9AFCE899F82B
:0E0564000FD5F0DAE4CDFBE4CCFAE4C8F922BE
:0E057200C3E49FFFE49EFEE49DFDE49CFC229A
:10058000EB9FF5F0EA9E42F0E99D42F0E89C45F0D1
:010590002248
:10059100E8600FECC313FCED13FDEE13FEEF13FF48
:0305A100D8F1226C
:1005A400E8600FEFC333FFEE33FEED33FDEC33FCB5
:0305B400D8F12259
:1005B700A8828583F0D083D0821205CE1205CE1291
:1005C70005CE1205CEE473E493A3C583C5F0C583B6
:1005D700C8C582C8F0A3C583C5F0C583C8C582C88E
:0105E70022F1
:1005E800BC000BBE0029EF8DF084FFADF022E4CCF7
:1005F800F875F008EF2FFFEE33FEEC33FCEE9DECC0
:10060800984005FCEE9DFE0FD5F0E9E4CEFD22ED05
:10061800F8F5F0EE8420D21CFEADF075F008EF2F4F
:10062800FFED33FD4007985006D5F0F222C398FD40
:050638000FD5F0EA22DD
:00000001FF
